{
  "contractName": "DragonFarm",
  "abi": [
    {
      "anonymous": false,
      "inputs": [
        {
          "indexed": false,
          "internalType": "string",
          "name": "name",
          "type": "string"
        },
        {
          "indexed": false,
          "internalType": "uint256",
          "name": "dna",
          "type": "uint256"
        }
      ],
      "name": "NewDragon",
      "type": "event"
    },
    {
      "inputs": [
        {
          "internalType": "uint256",
          "name": "",
          "type": "uint256"
        }
      ],
      "name": "dragons",
      "outputs": [
        {
          "internalType": "string",
          "name": "name",
          "type": "string"
        },
        {
          "internalType": "uint256",
          "name": "dna",
          "type": "uint256"
        }
      ],
      "stateMutability": "view",
      "type": "function",
      "constant": true
    },
    {
      "inputs": [
        {
          "internalType": "string",
          "name": "_name",
          "type": "string"
        }
      ],
      "name": "CreateDragon",
      "outputs": [],
      "stateMutability": "nonpayable",
      "type": "function"
    }
  ],
  "bytecode": "0x608060405234801561001057600080fd5b506106d8806100206000396000f3fe608060405234801561001057600080fd5b50600436106100365760003560e01c80630fab557b1461003b578063d2a59d6914610057575b600080fd5b6100556004803603810190610050919061044c565b610088565b005b610071600480360381019061006c91906104cb565b6100a3565b60405161007f92919061058f565b60405180910390f35b60006100938261015f565b905061009f82826101a9565b5050565b600081815481106100b357600080fd5b90600052602060002090600202016000915090508060000180546100d6906105ee565b80601f0160208091040260200160405190810160405280929190818152602001828054610102906105ee565b801561014f5780601f106101245761010080835404028352916020019161014f565b820191906000526020600020905b81548152906001019060200180831161013257829003601f168201915b5050505050908060010154905082565b600080826040516020016101739190610620565b6040516020818303038152906040528051906020012060001c9050662386f26fc10000816101a19190610671565b915050919050565b60006040518060400160405280848152602001838152509080600181540180825580915050600190039060005260206000209060020201600090919091909150600082015181600001908051906020019061020592919061024f565b506020820151816001015550507f31a340e7bf1d08ef34d4f27b310bb98fa96c3d4d8fc0779a635c9158da0de8a8828260405161024392919061058f565b60405180910390a15050565b82805461025b906105ee565b90600052602060002090601f01602090048101928261027d57600085556102c4565b82601f1061029657805160ff19168380011785556102c4565b828001600101855582156102c4579182015b828111156102c35782518255916020019190600101906102a8565b5b5090506102d191906102d5565b5090565b5b808211156102ee5760008160009055506001016102d6565b5090565b6000604051905090565b600080fd5b600080fd5b600080fd5b600080fd5b6000601f19601f8301169050919050565b7f4e487b7100000000000000000000000000000000000000000000000000000000600052604160045260246000fd5b61035982610310565b810181811067ffffffffffffffff8211171561037857610377610321565b5b80604052505050565b600061038b6102f2565b90506103978282610350565b919050565b600067ffffffffffffffff8211156103b7576103b6610321565b5b6103c082610310565b9050602081019050919050565b82818337600083830152505050565b60006103ef6103ea8461039c565b610381565b90508281526020810184848401111561040b5761040a61030b565b5b6104168482856103cd565b509392505050565b600082601f83011261043357610432610306565b5b81356104438482602086016103dc565b91505092915050565b600060208284031215610462576104616102fc565b5b600082013567ffffffffffffffff8111156104805761047f610301565b5b61048c8482850161041e565b91505092915050565b6000819050919050565b6104a881610495565b81146104b357600080fd5b50565b6000813590506104c58161049f565b92915050565b6000602082840312156104e1576104e06102fc565b5b60006104ef848285016104b6565b91505092915050565b600081519050919050565b600082825260208201905092915050565b60005b83811015610532578082015181840152602081019050610517565b83811115610541576000848401525b50505050565b6000610552826104f8565b61055c8185610503565b935061056c818560208601610514565b61057581610310565b840191505092915050565b61058981610495565b82525050565b600060408201905081810360008301526105a98185610547565b90506105b86020830184610580565b9392505050565b7f4e487b7100000000000000000000000000000000000000000000000000000000600052602260045260246000fd5b6000600282049050600182168061060657607f821691505b6020821081141561061a576106196105bf565b5b50919050565b6000602082019050818103600083015261063a8184610547565b905092915050565b7f4e487b7100000000000000000000000000000000000000000000000000000000600052601260045260246000fd5b600061067c82610495565b915061068783610495565b92508261069757610696610642565b5b82820690509291505056fea26469706673582212205da7c8288c11d28e0b6e3d33697021fad4649540d4e6814800d9b7791838842364736f6c634300080b0033",
  "immutableReferences": {},
  "source": "// SPDX-License-Identifier: MIT\npragma solidity >=0.4.22 <0.9.0;\n\ncontract DragonFarm {\n  event NewDragon (string name, uint dna);\n  struct Dragon {\n    string name;\n    uint dna;\n  }\n  Dragon[] public dragons;\n  function GenerateRandomDna(string memory str) private view returns (uint) {\n    uint rand = uint(keccak256((abi.encode(str))));\n    return rand % (10 ** 16);\n  }\n  function AddDragon(string memory _name, uint _dna) private {\n    dragons.push(Dragon(_name, _dna));\n    emit NewDragon(_name, _dna);  \n  }\n  function CreateDragon(string memory _name) public {\n    uint randDna = GenerateRandomDna(_name);\n    AddDragon(_name, randDna);\n  }\n}\n",
  "sourcePath": "/Users/admin/Desktop/Coding/dragon farm/contracts/DragonFarm.sol",
  "compiler": {
    "name": "solc",
    "version": "0.8.11+commit.d7f03943.Emscripten.clang"
  },
  "schemaVersion": "3.4.4",
  "updatedAt": "2022-02-21T13:23:31.112Z",
  "networkType": "ethereum",
  "devdoc": {
    "kind": "dev",
    "methods": {},
    "version": 1
  },
  "userdoc": {
    "kind": "user",
    "methods": {},
    "version": 1
  }
}